:020000040800F2
:100000000028002021190008DD160008E31600086A
:10001000E9160008EF160008F516000800000000B9
:10002000000000000000000000000000FB160008B7
:100030000717000800000000131700081F1700082A
:100040006919000869190008691900086919000888
:100050006919000869190008691900086919000878
:100060006919000869190008691900086919000868
:100070006919000869190008691900086919000858
:100080006919000869190008691900086919000848
:100090006919000869190008691900086919000838
:1000A0006919000869190008691900086919000828
:1000B0002D170008691900080000000069190008E0
:1000C000691900080000000000000000691900081C
:1000D000000000006919000869190008000000000C
:1000E0006919000869190008691900080000000072
:1000F0000000000000000000000000000000000000
:0C01000000000000000000005FF808F1A3
:10010C0010B5054C237833B9044B13B10448AFF345
:10011C0000800123237010BD60000020000000004F
:10012C00C02F000808B5034B1BB103490348AFF3BC
:10013C00008008BD0000000064000020C02F0008F3
:10014C0080B483B000AF7860094A7B6852F82330E2
:10015C00012B06D1064A7B68002142F823100123AB
:10016C0000E0002318460C37BD4680BC704700BF2A
:10017C007C00002080B483B000AF7860044A7B68B8
:10018C00012142F8231000BF0C37BD4680BC7047DC
:10019C007C00002080B582B000AF00237B6062E061
:1001AC00354A7B6852F8232034497B6841F8232078
:1001BC00334A7B6852F823202F497B6841F823206F
:1001CC00304A7B6852F823309BB219462E4801F016
:1001DC00B1FE034619462A4A7B6842F82310264A88
:1001EC007B6852F8232026497B6851F823309A42C9
:1001FC0036D1214A7B6852F8232020497B6851F87C
:10020C0023309A422CD11D4A7B6852F823201F4977
:10021C007B6851F823309A4214D0184A7B6852F804
:10022C0023201A497B6841F82320184A7B6852F82E
:10023C002330002B14D1164BC8221A607868FFF7B4
:10024C0099FF0DE0124B1B68013B114A1360104BD8
:10025C001B68002B04D10D4A7B68012142F8231046
:10026C007B6801337B607B68032B99DD00BF00BF8B
:10027C000837BD4680BD00BF2000002030000020A4
:10028C001000002000000020000801404000002069
:10029C005000002080B500AF9D4B1B68012B40F037
:1002AC007B819C4B1B68032B6BD801A252F823F06B
:1002BC00CD020008DB0200081703000853030008F6
:1002CC00944B01221A60642001F02AF860E0924BF2
:1002DC001B68012B57D101F033FA904B1B68904AE5
:1002EC0013608E4B1B68013B8C4A13608B4B1B6855
:1002FC00002B06D18B4B1B68884A1360854B02225E
:10030C001A60642001F00CF83DE0834B1B68012B54
:10031C003BD101F041FA844B1B68814A1360824B3C
:10032C001B68013B804A13607F4B1B68002B06D176
:10033C007E4B1B687C4A1360764B03221A60642048
:10034C0000F0EEFF21E0744B1B68012B1FD101F074
:10035C000DFA774B1B68724A1360754B1B68013B97
:10036C00734A1360724B1B68002B06D1714B1B68D0
:10037C006F4A1360674B01221A60642000F0D0FFB3
:10038C0005E000BF04E000BF02E000BF00E000BFDA
:10039C00694B1B68032B6CD801A252F823F000BFE9
:1003AC00BD030008CB030008070400084304000841
:1003BC00614B02221A60642000F0C6FF60E05F4BC4
:1003CC001B68012B57D101F0FDF95D4B1B68544A9A
:1003DC0053605B4B1B68013B594A1360584B1B68BD
:1003EC00002B06D14F4B1B68554A1360524B02220F
:1003FC001A60642000F0A8FF3DE0504B1B68012BF5
:10040C003BD101F00BFA4F4B1B68454A53604D4BE7
:10041C001B68013B4B4A13604A4B1B68002B06D1EF
:10042C00424B1B68474A1360434B03221A606420FB
:10043C0000F08AFF21E0414B1B68012B1FD101F01A
:10044C00D7F9414B1B68364A53603F4B1B68013B45
:10045C003D4A13603C4B1B68002B06D1354B1B6887
:10046C00394A1360344B01221A60642000F06CFF8F
:10047C0005E000BF04E000BF02E000BF00E000BFE9
:10048C00324B1B68022B20D0022B31DC002B02D00C
:10049C00012B07D02CE02D4B01221A60642000F0B8
:1004AC0067FF2AE02A4B1B68012B23D11C4B1B68CE
:1004BC001B4A52681146184600F000FC234B0222DE
:1004CC001A60322000F054FF14E0214B1B68012B02
:1004DC0012D1134B1B68124A52681146184600F091
:1004EC0027FC1A4B01221A60322000F041FF03E076
:1004FC0000BF02E000BF00E000BF164B1B68032BDF
:10050C003ED0032B4ADC002B26D0022B2ED045E00C
:10051C009400002098000020F4000020D800002057
:10052C008C000020CC000020DC000020D00000203B
:10053C00E0000020D40000209C000020FC000020E3
:10054C00E4000020E8000020EC000020A0000020C7
:10055C0004010020A40000200020FFF7F1FD034659
:10056C00012B1DD1114B02221A6019E00020FFF75C
:10057C00E7FD0346012B15D10C4B03221A6011E049
:10058C000020FFF7DDFD0346012B02D1074B0122B2
:10059C001A6000F03FFA06E000BF04E000BF02E082
:1005AC0000BF00E000BF00BF80BD00BF9400002072
:1005BC0080B500AF9E4B1B68022B40F09F809D4B7B
:1005CC001B68002B02D0012B07D010E0994B0122A5
:1005DC001A60012000F0E0FE09E0974B1B68012B2C
:1005EC0004D101F031F9192000F0D6FE00BF934B75
:1005FC001B68022B20D0022B31DC002B02D0012BEC
:10060C0007D02CE08D4B01221A60012000F0D8FE9F
:10061C002AE08B4B1B68012B23D1854B1B68894A25
:10062C0012681146184600F049FB844B02221A60EE
:10063C00192000F0C5FE14E0814B1B68012B12D170
:10064C007B4B1B687F4A12681146184600F070FB02
:10065C007A4B01221A60192000F0B2FE03E000BFB1
:10066C0002E000BF00E000BF774B1B68042B31D0C9
:10067C00042B35DC002B02D0022B0FD030E00120F4
:10068C00FFF75EFD0346012B2CD16F4B02221A6043
:10069C006C4B1B6801336B4A136023E00120FFF79E
:1006AC004FFD0346012B0BD1664B1B680133654A8A
:1006BC001360644B1B68632B02DD624B63221A6070
:1006CC000220FFF73DFD0346012B0DD15E4B0422AA
:1006DC001A6009E0564B01221A6000F09BF904E005
:1006EC0000BF02E000BF00E000BF0020FFF728FDC4
:1006FC000346012B02D14E4B03221A604C4B1B6854
:10070C00032B40F0B980514B1B68002B02D0012BFE
:10071C0007D010E04D4B01221A60012000F064FE5E
:10072C0009E04B4B1B68012B04D101F0AFF81920E9
:10073C0000F05AFE00BF474B1B68022B20D0022B47
:10074C0031DC002B02D0012B07D02CE0414B0122D5
:10075C001A60012000F05CFE2AE03F4B1B68012B65
:10076C0023D1334B1B683D4A12681146184600F0E2
:10077C00A5FA384B02221A60192000F049FE14E049
:10078C00354B1B68012B12D1294B1B68334A12685D
:10079C001146184600F0CCFA2E4B01221A60192093
:1007AC0000F036FE03E000BF02E000BF00E000BF37
:1007BC002B4B1B68042B31D0042B35DC002B02D0C7
:1007CC00022B0FD030E00120FFF7BAFC0346012BBF
:1007DC002CD1234B02221A60204B1B6801331F4A79
:1007EC00136023E00120FFF7ABFC0346012B0BD178
:1007FC001A4B1B680133194A1360184B1B68632B87
:10080C0002DD164B63221A600220FFF799FC0346A7
:10081C00012B27D1124B04221A6023E0044B012236
:10082C001A6000F0F7F81EE000BF1CE000BF1AE0F1
:10083C0094000020A80000200C010020AC00002037
:10084C0014010020CC000020B0000020B4000020D7
:10085C001C010020B800002024010020D000002042
:10086C00BC00002000BF0020FFF76AFC0346012BF0
:10087C0002D1544B04221A60524B1B68042B40F0DB
:10088C009F80514B1B68002B02D0012B07D010E02E
:10089C004D4B01221A60012000F0CEFD09E04B4BBC
:1008AC001B68012B04D101F013F8192000F0C4FDD2
:1008BC0000BF474B1B68022B20D0022B31DC002BD6
:1008CC0002D0012B07D02CE0414B01221A600120F1
:1008DC0000F0C6FD2AE03F4B1B68012B23D1394B9E
:1008EC001B683D4A12681146184600F0E7F9384B70
:1008FC0002221A60192000F0B3FD14E0354B1B687E
:10090C00012B12D12F4B1B68334A12681146184623
:10091C0000F00EFA2E4B01221A60192000F0A0FDF7
:10092C0003E000BF02E000BF00E000BF2B4B1B68E0
:10093C00042B31D0042B35DC002B02D0022B0FD032
:10094C0030E00120FFF7FCFB0346012B2CD1234B9D
:10095C0002221A60204B1B6801331F4A136023E0EC
:10096C000120FFF7EDFB0346012B0BD11A4B1B6843
:10097C000133194A1360184B1B68632B02DD164BAD
:10098C0063221A600220FFF7DBFB0346012B0DD11B
:10099C00124B04221A6009E00A4B01221A6000F083
:1009AC0039F804E000BF02E000BF00E000BF002007
:1009BC00FFF7C6FB0346012B02D1024B01221A6042
:1009CC0000BF80BD94000020C00000202C0100203E
:1009DC00C400002034010020D4000020C8000020F6
:1009EC0080B400AF084B02221A60084B01221A6037
:1009FC00054B1A68054B1B681344054A136000BF6E
:100A0C00BD4680BC704700BFD0000020D400002041
:100A1C00CC00002080B400AF224B01221A60224B84
:100A2C0000221A60214B00221A60214B00221A600E
:100A3C00204B00221A60204B00221A601F4B002210
:100A4C001A601F4B00221A601E4B00221A601E4BAC
:100A5C0000221A601D4B00221A601D4B00221A60E6
:100A6C001C4B00221A601C4B00221A601B4B1B688B
:100A7C001B4A13601B4B1B681B4A13601B4B1B68E8
:100A8C001B4A1360154B1B681A4A1360154B1B68E5
:100A9C00194A1360154B1B68184A136000BFBD46FA
:100AAC0080BC704794000020980000209C0000201F
:100ABC00A0000020A4000020A8000020AC00002012
:100ACC00B0000020B4000020B8000020BC000020C2
:100ADC00C0000020C4000020C8000020CC00002072
:100AEC00D8000020D0000020DC000020D400002022
:100AFC00E0000020E4000020E8000020EC000020D2
:100B0C0080B582B000AF7860314A7B6813441B78A3
:100B1C0003F00103DBB21A4601212E4801F021FA41
:100B2C002B4A7B6813441B785B08DBB203F0010390
:100B3C00DBB21A460221274801F013FA244A7B68DB
:100B4C0013441B789B08DBB203F00103DBB21A469B
:100B5C000421204801F005FA1D4A7B6813441B78D8
:100B6C00DB08DBB203F00103DBB21A46082119489B
:100B7C0001F0F7F9164A7B6813441B781B09DBB2AA
:100B8C0003F00103DBB21A461021124801F0E9F917
:100B9C000F4A7B6813441B785B09DBB203F001033B
:100BAC00DBB21A4620210B4801F0DBF9084A7B68BE
:100BBC0013441B789B09DBB203F00103DBB21A462A
:100BCC004021044801F0CDF900BF0837BD4680BD77
:100BDC00E82F0008000C014080B582B000AF7860AF
:100BEC00344A7B6813441B7803F00103DBB21A46CA
:100BFC008021314801F0B5F92E4A7B6813441B78EB
:100C0C005B08DBB203F00103DBB21A464FF48071D0
:100C1C00294801F0A6F9274A7B6813441B789B08E6
:100C2C00DBB203F00103DBB21A464FF40071224829
:100C3C0001F097F91F4A7B6813441B78DB08DBB281
:100C4C0003F00103DBB21A464FF480611A4801F03D
:100C5C0088F9184A7B6813441B781B09DBB203F034
:100C6C000103DBB21A464FF40061134801F079F925
:100C7C00104A7B6813441B785B09DBB203F0010359
:100C8C00DBB21A464FF480510B4801F06AF9094A5D
:100C9C007B6813441B789B09DBB203F00103DBB2C6
:100CAC001A464FF40051044801F05BF900BF0837B5
:100CBC00BD4680BDE82F0008000C014080B582B015
:100CCC0000AF7860396000224FF48071164801F053
:100CDC0048F901224FF40071134801F042F97B6886
:100CEC00124A82FB03129210DB17D31A1846FFF735
:100CFC0007FF00224FF480610B4801F032F901220A
:100D0C004FF40061084801F02CF93B68074A82FB5C
:100D1C0003129210DB17D31A1846FFF75DFF00BFC2
:100D2C000837BD4680BD00BF000801406766666697
:100D3C0080B582B000AF7860396001224FF48071C9
:100D4C001B4801F00EF900224FF40071184801F015
:100D5C0008F97A68174B83FB02139910D317C91A39
:100D6C000B469B000B445B00D11A0846FFF7C8FEEC
:100D7C0001224FF480610E4801F0F3F800224FF489
:100D8C0000610B4801F0EDF83A680A4B83FB021343
:100D9C009910D317C91A0B469B000B445B00D11A50
:100DAC000846FFF719FF00BF0837BD4680BD00BFDE
:100DBC00000801406766666680B500AF00F0D0FDA4
:100DCC0000F02EF800F068F800F0B2F80F4801F0CF
:100DDC0031FDFFF705FEFFF71DFE00F01CF90A229E
:100DEC000A210B4800F02CF964226421094800F018
:100DFC0027F90A221421084800F022F96422C8219C
:100E0C00064800F01DF900F0A3F9FCE7600400208F
:100E1C0095140008A1020008A1010008BD050008F6
:100E2C0080B590B000AF07F11803282200211846B6
:100E3C0002F0B8F83B1D00221A605A609A60DA6022
:100E4C001A610223BB610123BB621023FB620023E6
:100E5C007B6307F11803184601F0B4F80346002B26
:100E6C0001D000F0D3F80F237B600023BB6000237C
:100E7C00FB6000233B6100237B613B1D0021184676
:100E8C0001F020FB0346002B01D000F0BFF800BF9F
:100E9C004037BD4680BD000080B586B000AF07F17D
:100EAC00080300221A605A609A60DA603B460022FE
:100EBC001A605A601D4B4FF080421A601B4B41F672
:100ECC003F725A60194B00229A60184B0922DA6063
:100EDC00164B00221A61154B00229A61134801F03F
:100EEC0059FC0346002B01D000F090F84FF48053CE
:100EFC00BB6007F1080319460C4801F0EFFD0346EF
:100F0C00002B01D000F082F800233B6000237B60B3
:100F1C003B461946054801F0B7FF0346002B01D0AC
:100F2C0000F074F800BF1837BD4680BD6004002087
:100F3C0080B586B000AF07F1080300221A605A6032
:100F4C009A60DA60294B9B69284A43F00403936149
:100F5C00264B9B6903F004037B607B68234B9B69E6
:100F6C00224A43F008039361204B9B6903F008036A
:100F7C003B603B68002240F6FE711D4800F0F1FF1B
:100F8C00002243F6FF711B4800F0EBFF40F6FE73A6
:100F9C00BB600123FB6000233B6102237B6107F1F3
:100FAC0008031946124800F04BFE43F6FF73BB6072
:100FBC000123FB6000233B6102237B6107F10803E3
:100FCC0019460C4800F03CFE4FF4E043BB60002394
:100FDC00FB6001233B6107F108031946044800F04C
:100FEC002FFE00BF1837BD4680BD00BF0010024069
:100FFC0000080140000C014080B582B000AF786061
:10100C0000F002F900BF0837BD4680BD80B400AFC8
:10101C0072B600BFFEE780B582B000AF0023FB7153
:10102C0006E0FB79184600F047F9FB790133FB71B8
:10103C00FB79272BF5D900BF00BF0837BD4680BD13
:10104C0080B487B000AFF860B9607A60BB68284A9A
:10105C00A2FB0323DB08BB607B68254AA2FB0323AE
:10106C00DB087B600023FB750CE0FA7D21491346FD
:10107C009B0013449B000B441B68002B06D0FB7D8C
:10108C000133FB75FB7D272BEFD900E000BFFB7D07
:10109C00282B27D0FA7D174913469B0013449B003D
:1010AC000B44FA681A60FA7D124913469B001344EC
:1010BC009B000B440433BA681A60FA7D0D49134641
:1010CC009B0013449B000B4408337A681A60FA7D2A
:1010DC00084913469B0013449B000B440C3300221D
:1010EC001A6000E000BF1C37BD4680BC704700BFD3
:1010FC00CDCCCCCC40010020B0B584B000AF0346C1
:10110C00FB71FB79FB7317E0FB7B5A1CF97B0F48D7
:10111C000B469B000B449B0018440C4913469B0048
:10112C0013449B000B4404461D460FCD0FC42B6883
:10113C002360FB7B0133FB73FB7B262BE4D927203D
:10114C0000F0BAF800BF1037BD46B0BD400100201A
:10115C00B0B586B000AF0023FB754BE0FA7D294992
:10116C0013469B0013449B000B440C331B68002B51
:10117C003DD0FA7D234913469B0013449B000B443E
:10118C001B689847FA7D1F4913469B0013449B002C
:10119C000B440C331B68591E1A4813469B0013440E
:1011AC009B0003440C331960FA7D164913469B00CF
:1011BC0013449B000B443C461D460FCD0FC42B68BB
:1011CC002360FB7D1846FFF797FFBB68002B0ED002
:1011DC003868BA6813469B0013445B001946BA681A
:1011EC0013469B0013445B001A46FFF729FFFB7D57
:1011FC000133FB75FB7D272BB0D900BF00BF18371F
:10120C00BD46B0BD4001002080B483B000AF0023C8
:10121C00FB7146E0FA79274913469B0013449B0067
:10122C000B441B68002B39D0FA79224913469B00DA
:10123C0013449B000B4404331B68002B1CD1FA791C
:10124C001C4913469B0013449B000B440C33012296
:10125C001A60F979FA7917480B469B000B449B00EE
:10126C00034408331968134813469B0013449B002E
:10127C0003440433196011E0FA790E4913469B00BC
:10128C0013449B000B4404331B68591E0948134636
:10129C009B0013449B00034404331960FB79013316
:1012AC00FB71FB79272BB5D900BF00BF0C37BD46AE
:1012BC0080BC70474001002080B483B000AF03466F
:1012CC00FB71FA79154913469B0013449B000B44A0
:1012DC0000221A60FA79114913469B0013449B00B3
:1012EC000B44043300221A60FA790C4913469B0014
:1012FC0013449B000B44083300221A60FA79074907
:10130C0013469B0013449B000B440C3300221A60C1
:10131C0000BF0C37BD4680BC704700BF40010020A9
:10132C0080B483B000AF7860054A7B681360054BCE
:10133C0000221A6000BF0C37BD4680BC704700BF4E
:10134C00F0000020F400002080B483B000AF78607F
:10135C00054A7B681360054B00221A6000BF0C37EE
:10136C00BD4680BC704700BFF8000020FC00002088
:10137C0080B483B000AF7860054A7B681360054B7E
:10138C0000221A6000BF0C37BD4680BC704700BFFE
:10139C00000100200401002080B483B000AF78600D
:1013AC00054A7B681360054B00221A6000BF0C379E
:1013BC00BD4680BC704700BF080100200C01002016
:1013CC0080B483B000AF7860054A7B681360054B2E
:1013DC0000221A6000BF0C37BD4680BC704700BFAE
:1013EC00100100201401002080B483B000AF78609D
:1013FC00054A7B681360054B00221A6000BF0C374E
:10140C00BD4680BC704700BF180100201C010020A5
:10141C0080B483B000AF7860054A7B681360054BDD
:10142C0000221A6000BF0C37BD4680BC704700BF5D
:10143C00200100202401002080B483B000AF78602C
:10144C00054A7B681360054B00221A6000BF0C37FD
:10145C00BD4680BC704700BF280100202C01002035
:10146C0080B483B000AF7860054A7B681360054B8D
:10147C0000221A6000BF0C37BD4680BC704700BF0D
:10148C00300100203401002080B400AF514B1B68A8
:10149C00002B0BDD4F4B1B68013B4E4A13604D4B31
:1014AC001B68002B02D14C4B01221A604B4B1B6862
:1014BC00002B0BDD494B1B68013B484A1360474B23
:1014CC001B68002B02D1464B01221A60454B1B684E
:1014DC00002B0BDD434B1B68013B424A1360414B15
:1014EC001B68002B02D1404B01221A603F4B1B683A
:1014FC00002B0BDD3D4B1B68013B3C4A13603B4B07
:10150C001B68002B02D13A4B01221A60394B1B6825
:10151C00002B0BDD374B1B68013B364A1360354BF8
:10152C001B68002B02D1344B01221A60334B1B6811
:10153C00002B0BDD314B1B68013B304A13602F4BEA
:10154C001B68002B02D12E4B01221A602D4B1B68FD
:10155C00002B0BDD2B4B1B68013B2A4A1360294BDC
:10156C001B68002B02D1284B01221A60274B1B68E9
:10157C00002B0BDD254B1B68013B244A1360234BCE
:10158C001B68002B02D1224B01221A60214B1B68D5
:10159C00002B0BDD1F4B1B68013B1E4A13601D4BC0
:1015AC001B68002B02D11C4B01221A601B4B1B68C1
:1015BC00002B0BDD194B1B68013B184A1360174BB2
:1015CC001B68002B02D1164B01221A6000BFBD46CE
:1015DC0080BC7047F0000020F4000020F8000020D0
:1015EC00FC00002000010020040100200801002064
:1015FC000C01002010010020140100201801002013
:10160C001C010020200100202401002028010020C2
:10161C002C01002030010020340100203801002072
:10162C003C01002080B485B000AF154B9B69144A77
:10163C0043F001039361124B9B6903F00103BB6000
:10164C00BB680F4BDB690E4A43F08053D3610C4BE4
:10165C00DB6903F080537B607B680A4B5B68FB6043
:10166C00FB6823F0E063FB60FB6843F08063FB6086
:10167C00044AFB68536000BF1437BD4680BC7047FA
:10168C00001002400000014080B584B000AF7860CB
:10169C007B681B68B3F1804F13D10C4BDB690B4A91
:1016AC0043F00103D361094BDB6903F00103FB60D9
:1016BC00FB68002200211C2000F08BFA1C2000F09B
:1016CC00A4FA00BF1037BD4680BD00BF0010024019
:1016DC0080B400AFFEE780B400AFFEE780B400AF8B
:1016EC00FEE780B400AFFEE780B400AFFEE780B445
:1016FC0000AF00BFBD4680BC704780B400AF00BFD8
:10170C00BD4680BC704780B400AF00BFBD4680BCF6
:10171C00704780B500AF00F069F900BF80BD0000D4
:10172C0080B500AF024801F0D1F800BF80BD00BF0A
:10173C006004002080B400AF00BFBD4680BC704781
:10174C0080B500AF00220221074800F00AFC0122FC
:10175C000821054800F005FC01220421024800F094
:10176C0000FC00BF80BD00BF0008014080B500AF89
:10177C0001220221074800F0F4FB01220821054850
:10178C0000F0EFFB00220421024800F0EAFB00BF4E
:10179C0080BD00BF0008014080B500AF01220221CE
:1017AC00074800F0DEFB00220821054800F0D9FBB9
:1017BC0001220421024800F0D4FB00BF80BD00BF11
:1017CC000008014080B500AF00221021074800F04E
:1017DC00C8FB01224021054800F0C3FB0122202157
:1017EC00024800F0BEFB00BF80BD00BF00080140F6
:1017FC0080B500AF01221021074800F0B2FB012296
:10180C004021054800F0ADFB00222021024800F0E9
:10181C00A8FB00BF80BD00BF0008014080B500AF31
:10182C0001221021074800F09CFB002240210548B2
:10183C0000F097FB01222021024800F092FB00BF30
:10184C0080BD00BF0008014080B500AF02210E48EA
:10185C0000F09FFB10210C4800F09BFB012208219B
:10186C00094800F07EFB01224021074800F079FB7B
:10187C0001220421044800F074FB012220210248BB
:10188C0000F06FFB00BF80BD0008014080B500AFC9
:10189C0008210E4800F07DFB40210C4800F079FB3C
:1018AC0001220221094800F05CFB012210210748AB
:1018BC0000F057FB01220421044800F052FB0122E6
:1018CC002021024800F04DFB00BF80BD0008014004
:1018DC0080B500AF04210E4800F05BFB20210C48C2
:1018EC0000F057FB01220821094800F03AFB0122C5
:1018FC004021074800F035FB01220221044800F08A
:10190C0030FB01221021024800F02BFB00BF80BDF0
:10191C0000080140FFF70EFF0B480C490C4A00234E
:10192C0002E0D458C4500433C4188C42F9D3094A89
:10193C00094C002301E013600432A242FBD301F0F6
:10194C000DFBFFF739FA7047000000206000002003
:10195C000C30000860000020AC040020FEE7000002
:10196C0080B500AF084B1B68074A43F010031360A7
:10197C00032000F023F90F2000F008F8FFF752FEC7
:10198C000023184680BD00BF0020024080B582B005
:10199C0000AF7860124B1A68124B1B7819464FF443
:1019AC007A73B3FBF1F3B2FBF3F3184600F03BF997
:1019BC000346002B01D001230EE07B680F2B0AD8C5
:1019CC00002279684FF0FF3000F003F9064A7B687B
:1019DC001360002300E0012318460837BD4680BD84
:1019EC00540000205C0000205800002080B400AFA0
:1019FC00054B1B781A46054B1B681344034A1360AE
:101A0C0000BFBD4680BC70475C000020A8040020CD
:101A1C0080B400AF024B1B681846BD4680BC7047B3
:101A2C00A804002080B485B000AF78607B6803F018
:101A3C000703FB600C4BDB68BB60BA684FF6FF0317
:101A4C001340BB60FB681A02BB68134343F0BF63CF
:101A5C0043F40033BB60044ABB68D36000BF143747
:101A6C00BD4680BC704700BF00ED00E080B400AF05
:101A7C00044BDB681B0A03F007031846BD4680BC09
:101A8C00704700BF00ED00E080B483B000AF0346A8
:101A9C00FB7197F90730002B0BDBFB7903F01F026E
:101AAC00064997F907305B09012000FA02F241F868
:101ABC00232000BF0C37BD4680BC704700E100E01E
:101ACC0080B483B000AF03463960FB7197F90730DF
:101ADC00002B0ADB3B68DAB20C4997F9073012018C
:101AEC00D2B20B4483F800230AE03B68DAB208490F
:101AFC00FB7903F00F03043B1201D2B20B441A76AC
:101B0C0000BF0C37BD4680BC704700BF00E100E051
:101B1C0000ED00E080B489B000AFF860B9607A6085
:101B2C00FB6803F00703FB61FB69C3F10703042B9C
:101B3C0028BF0423BB61FB690433062B02D9FB6964
:101B4C00033B00E000237B614FF0FF32BB6902FADC
:101B5C0003F3DA43BB681A407B699A404FF0FF31BC
:101B6C007B6901FA03F3D9437B680B401343184696
:101B7C002437BD4680BC704780B582B000AF78601A
:101B8C007B68013BB3F1807F01D301230FE00A4A4C
:101B9C007B68013B53600F214FF0FF30FFF790FF44
:101BAC00054B00229A60044B07221A60002318464A
:101BBC000837BD4680BD00BF10E000E080B582B0A4
:101BCC0000AF78607868FFF72DFF00BF0837BD467F
:101BDC0080BD80B586B000AF0346B9607A60FB73F8
:101BEC0000237B61FFF742FF78617A68B9687869F6
:101BFC00FFF790FF024697F90F3011461846FFF792
:101C0C005FFF00BF1837BD4680BD80B582B000AF06
:101C1C000346FB7197F907301846FFF735FF00BFF5
:101C2C000837BD4680BD80B582B000AF786078685B
:101C3C00FFF7A2FF034618460837BD4680BD0000DB
:101C4C0080B48BB000AF7860396000237B620023D6
:101C5C003B6248E101227B6A02FA03F3FB613B68B9
:101C6C001B68FA691340BB61BA69FB699A4240F080
:101C7C0037813B685B68A34A93425ED0A14A93428A
:101C8C0075D8A14A934258D09F4A93426FD89F4A25
:101C9C00934252D09D4A934269D89D4A93424CD06C
:101CAC009B4A934263D89B4A934246D0994A9342AB
:101CBC005DD8122B2AD8122B59D801A252F823F036
:101CCC00471D0008211D0008331D0008751D000864
:101CDC007B1D00087B1D00087B1D00087B1D000878
:101CEC007B1D00087B1D00087B1D00087B1D000868
:101CFC007B1D00087B1D00087B1D00087B1D000858
:101D0C007B1D0008291D00083D1D0008824A9342D6
:101D1C0013D02CE03B68DB683B6229E03B68DB6856
:101D2C0004333B6224E03B68DB6808333B621FE012
:101D3C003B68DB680C333B621AE03B689B68002B0A
:101D4C0002D104233B6213E03B689B68012B05D155
:101D5C0008233B627B68FA691A6109E008233B623D
:101D6C007B68FA695A6103E000233B6200E000BF24
:101D7C00BB69FF2B01D87B6801E07B6804337B6176
:101D8C00BB69FF2B02D87B6A9B0002E07B6A083B95
:101D9C009B003B617B691A680F213B6901FA03F3D5
:101DAC00DB431A40396A3B6901FA03F31A437B6936
:101DBC001A603B685B6803F08053002B00F0908046
:101DCC00564B9B69554A43F001039361534B9B69F6
:101DDC0003F00103BB60BB68514A7B6A9B0802336A
:101DEC0052F82330FB607B6A03F003039B000F2245
:101DFC0002FA03F3DB43FA681340FB607B68494A41
:101E0C0093420DD07B68484A934207D07B68474A7F
:101E1C00934201D1022304E0032302E0012300E0FA
:101E2C0000237A6A02F0030292009340FA6813438B
:101E3C00FB603B497B6A9B080233FA6841F823201C
:101E4C003B685B6803F48033002B06D0384B1A6870
:101E5C003749BB6913430B6006E0354B1A68BB6905
:101E6C00DB43334913400B603B685B6803F400337E
:101E7C00002B06D02E4B5A682D49BB6913434B607F
:101E8C0006E02B4B5A68BB69DB43294913404B6076
:101E9C003B685B6803F48013002B06D0244B9A68D4
:101EAC002349BB6913438B6006E0214B9A68BB69DD
:101EBC00DB431F4913408B603B685B6803F40013E2
:101ECC00002B06D01A4BDA681949BB691343CB6057
:101EDC0006E0174BDA68BB69DB4315491340CB604E
:101EEC007B6A01337B623B681A687B6A22FA03F3D4
:101EFC00002B7FF4AFAE00BF00BF2C37BD4680BCBB
:101F0C00704700BF0000321000003110000022109A
:101F1C0000002110000012100000111000100240EF
:101F2C000000014000080140000C0140001001407D
:101F3C000004014080B485B000AF78600B467B8014
:101F4C007B689A687B881340002B02D00123FB73BB
:101F5C0001E00023FB73FB7B18461437BD4680BCA5
:101F6C00704780B483B000AF78600B467B8013461B
:101F7C007B707B78002B03D07A887B681A6103E036
:101F8C007B881A047B681A6100BF0C37BD4680BC85
:101F9C00704780B485B000AF78600B467B807B685F
:101FAC00DB68FB607A88FB6813401A04FB68D94332
:101FBC007B880B401A437B681A6100BF1437BD46FF
:101FCC0080BC704780B586B000AF78607B68002B12
:101FDC0001D101236CE27B681B6803F00103002B29
:101FEC0000F08780924B5B6803F00C03042B0CD041
:101FFC008F4B5B6803F00C03082B12D18C4B5B6886
:10200C0003F48033B3F5803F0BD1894B1B6803F489
:10201C000033002B6CD07B685B68002B68D10123EC
:10202C0046E27B685B68B3F5803F06D1804B1B684A
:10203C007F4A43F4803313602EE07B685B68002B8F
:10204C000CD17B4B1B687A4A23F480331360784B9A
:10205C001B68774A23F4802313601DE07B685B6860
:10206C00B3F5A02F0CD1724B1B68714A43F480233B
:10207C0013606F4B1B686E4A43F4803313600BE0A4
:10208C006B4B1B686A4A23F480331360684B1B68E4
:10209C00674A23F4802313607B685B68002B13D0A2
:1020AC00FFF7B6FC386108E0FFF7B2FC02463B696B
:1020BC00D31A642B01D90323FAE15D4B1B6803F49B
:1020CC000033002BF0D014E0FFF7A2FC386108E0DD
:1020DC00FFF79EFC02463B69D31A642B01D90323FC
:1020EC00E6E1534B1B6803F40033002BF0D100E006
:1020FC0000BF7B681B6803F00203002B63D04C4BC2
:10210C005B6803F00C03002B0BD0494B5B6803F0AE
:10211C000C03082B1CD1464B5B6803F48033002B5B
:10212C0016D1434B1B6803F00203002B05D07B68D0
:10213C001B69012B01D00123BAE13D4B1B6823F035
:10214C00F8027B685B69DB00394913430B603AE0AA
:10215C007B681B69002B20D0364B01221A60FFF7DD
:10216C0057FC386108E0FFF753FC02463B69D31A71
:10217C00022B01D903239BE12D4B1B6803F00203B7
:10218C00002BF0D02A4B1B6823F0F8027B685B69AC
:10219C00DB00274913430B6015E0264B00221A6025
:1021AC00FFF736FC386108E0FFF732FC02463B696A
:1021BC00D31A022B01D903237AE11D4B1B6803F0C0
:1021CC000203002BF0D17B681B6803F00803002B83
:1021DC003AD07B689B69002B19D0174B01221A60EF
:1021EC00FFF716FC386108E0FFF712FC02463B696A
:1021FC00D31A022B01D903235AE10D4B5B6A03F06E
:10220C000203002BF0D0012000F0A6FA1CE00A4BD0
:10221C0000221A60FFF7FCFB38610FE0FFF7F8FBB8
:10222C0002463B69D31A022B08D9032340E100BFB5
:10223C000010024000004242800442429E4B5B6A06
:10224C0003F00203002BE9D17B681B6803F0040345
:10225C00002B00F0A6800023FB75974BDB6903F085
:10226C008053002B0DD1944BDB69934A43F0805380
:10227C00D361914BDB6903F08053BB60BB680123D6
:10228C00FB758E4B1B6803F48073002B18D18B4BA2
:10229C001B688A4A43F480731360FFF7B9FB3861FB
:1022AC0008E0FFF7B5FB02463B69D31A642B01D952
:1022BC000323FDE0814B1B6803F48073002BF0D0EB
:1022CC007B68DB68012B06D17B4B1B6A7A4A43F097
:1022DC00010313622DE07B68DB68002B0CD1764B7D
:1022EC001B6A754A23F001031362734B1B6A724A13
:1022FC0023F0040313621CE07B68DB68052B0CD114
:10230C006D4B1B6A6C4A43F0040313626A4B1B6AE5
:10231C00694A43F0010313620BE0674B1B6A664A80
:10232C0023F001031362644B1B6A634A23F004031A
:10233C0013627B68DB68002B15D0FFF769FB3861F3
:10234C000AE0FFF765FB02463B69D31A41F288327B
:10235C00934201D90323ABE0574B1B6A03F00203F2
:10236C00002BEED014E0FFF753FB38610AE0FFF7C7
:10237C004FFB02463B69D31A41F28832934201D992
:10238C00032395E04C4B1B6A03F00203002BEED1A8
:10239C00FB7D012B05D1484BDB69474A23F0805369
:1023AC00D3617B68DB69002B00F08180424B5B685A
:1023BC0003F00C03082B61D07B68DB69022B46D140
:1023CC003F4B00221A60FFF723FB386108E0FFF750
:1023DC001FFB02463B69D31A022B01D9032367E08A
:1023EC00354B1B6803F00073002BF0D17B681B6A24
:1023FC00B3F5803F08D1304B5B6823F400327B6827
:10240C009B682D4913434B602B4B5B6823F4741270
:10241C007B68196A7B685B6A0B43274913434B60E3
:10242C00274B01221A60FFF7F3FA386108E0FFF737
:10243C00EFFA02463B69D31A022B01D9032337E08A
:10244C001D4B1B6803F00073002BF0D02FE01C4BCE
:10245C0000221A60FFF7DCFA386108E0FFF7D8FABF
:10246C0002463B69D31A022B01D9032320E0124BFD
:10247C001B6803F00073002BF0D118E07B68DB695C
:10248C00012B01D1012313E00B4B5B68FB60FB6854
:10249C0003F480327B681B6A9A4206D1FB6803F412
:1024AC0070127B685B6A9A4201D0012300E0002322
:1024BC0018461837BD4680BD001002400070004021
:1024CC006000424280B584B000AF786039607B68B0
:1024DC00002B01D10123D0E06A4B1B6803F00703EA
:1024EC003A689A4210D9674B1B6823F0070265497A
:1024FC003B6813430B60634B1B6803F007033A689C
:10250C009A4201D00123B8E07B681B6803F00203F8
:10251C00002B20D07B681B6803F00403002B05D034
:10252C00594B5B68584A43F4E06353607B681B6803
:10253C0003F00803002B05D0534B5B68524A43F45D
:10254C0060535360504B5B6823F0F0027B689B68D0
:10255C004D4913434B607B681B6803F00103002B50
:10256C0040D07B685B68012B07D1474B1B6803F499
:10257C000033002B15D101237FE07B685B68022BB5
:10258C0007D1414B1B6803F00073002B09D10123C9
:10259C0073E03D4B1B6803F00203002B01D10123B8
:1025AC006BE0394B5B6823F003027B685B68364950
:1025BC0013434B60FFF72CFAF8600AE0FFF728FA98
:1025CC000246FB68D31A41F28832934201D90323A5
:1025DC0053E02D4B5B6803F00C027B685B689B003F
:1025EC009A42EBD1274B1B6803F007033A689A42D7
:1025FC0010D2244B1B6823F0070222493B6813437B
:10260C000B60204B1B6803F007033A689A4201D019
:10261C00012332E07B681B6803F00403002B08D015
:10262C00194B5B6823F4E0627B68DB681649134343
:10263C004B607B681B6803F00803002B09D0124B1E
:10264C005B6823F460527B681B69DB000E49134303
:10265C004B6000F021F802460B4B5B681B0903F042
:10266C000F030A49CB5C22FA03F3094A1360094BA6
:10267C001B681846FFF78AF9002318461037BD4629
:10268C0080BD00BF0020024000100240F42F000863
:10269C00540000205800002090B48AB000AF2A4BA0
:1026AC003C1D0FCB84E80F0040F201233B8000233C
:1026BC00FB610023BB6100237B6200237B61002351
:1026CC003B62224B5B68FB61FB6903F00C03042B40
:1026DC0002D0082B03D02DE01D4B3B622DE0FB6993
:1026EC009B0C03F00F0307F12802134413F8243C4E
:1026FC007B61FB6903F48033002B13D0134B5B68B5
:10270C005B0C03F0010307F12802134413F8283C77
:10271C00BB617B690E4A02FB03F2BB69B2FBF3F3AC
:10272C007B6204E07B690B4A02FB03F37B627B6AEE
:10273C003B6202E0064B3B6200BF3B6A18462837FF
:10274C00BD4690BC704700BFD82F00080010024057
:10275C0000127A0000093D0080B485B000AF7860AB
:10276C000A4B1B680A4AA2FB03235B0A7A6802FB2A
:10277C0003F3FB6000BFFB685A1EFA60002BF9D113
:10278C0000BF00BF1437BD4680BC7047540000200A
:10279C00D34D621080B582B000AF78607B68002B9F
:1027AC0001D1012341E07B6893F83D30DBB2002B73
:1027BC0006D17B68002283F83C207868FEF764FF22
:1027CC007B68022283F83D207B681A687B6804339F
:1027DC001946104600F06AFA7B68012283F84620FD
:1027EC007B68012283F83E207B68012283F83F201E
:1027FC007B68012283F840207B68012283F841200A
:10280C007B68012283F842207B68012283F84320F5
:10281C007B68012283F844207B68012283F84520E1
:10282C007B68012283F83D20002318460837BD46FB
:10283C0080BD000080B485B000AF78607B6893F8F1
:10284C003D30DBB2012B01D0012335E07B68022245
:10285C0083F83D207B681B68DA687B681B6842F054
:10286C000102DA607B681B68164A934209D07B68C8
:10287C001B68B3F1804F04D07B681B68124A9342EB
:10288C0011D17B681B689B6803F00703FB60FB6836
:10289C00062B10D07B681B681A687B681B6842F09B
:1028AC0001021A6007E07B681B681A687B681B686A
:1028BC0042F001021A60002318461437BD4680BC52
:1028CC00704700BF002C01400004004080B582B06E
:1028DC0000AF78607B681B681B6903F00203022B56
:1028EC0022D17B681B68DB6803F00203022B1BD12F
:1028FC007B681B686FF002021A617B6801221A77F1
:10290C007B681B689B6903F00303002B03D078687A
:10291C0000F0B1F905E0786800F0A4F9786800F0EF
:10292C00B3F97B6800221A777B681B681B6903F07C
:10293C000403042B22D17B681B68DB6803F00403BF
:10294C00042B1BD17B681B686FF004021A617B6837
:10295C0002221A777B681B689B6903F44073002B77
:10296C0003D0786800F087F905E0786800F07AF910
:10297C00786800F089F97B6800221A777B681B68FD
:10298C001B6903F00803082B22D17B681B68DB68EA
:10299C0003F00803082B1BD17B681B686FF008023F
:1029AC001A617B6804221A777B681B68DB6903F069
:1029BC000303002B03D0786800F05DF905E078681C
:1029CC0000F050F9786800F05FF97B6800221A7704
:1029DC007B681B681B6903F01003102B22D17B68EA
:1029EC001B68DB6803F01003102B1BD17B681B6882
:1029FC006FF010021A617B6808221A777B681B68DB
:102A0C00DB6903F44073002B03D0786800F033F9D2
:102A1C0005E0786800F026F9786800F035F97B68F5
:102A2C0000221A777B681B681B6903F00103012BDA
:102A3C000ED17B681B68DB6803F00103012B07D107
:102A4C007B681B686FF001021A617868FEF7D4FA94
:102A5C007B681B681B6903F08003802B0ED17B689D
:102A6C001B68DB6803F08003802B07D17B681B6835
:102A7C006FF080021A61786800F067FA7B681B6857
:102A8C001B6903F04003402B0ED17B681B68DB688D
:102A9C0003F04003402B07D17B681B686FF04002AA
:102AAC001A61786800F0F9F87B681B681B6903F001
:102ABC002003202B0ED17B681B68DB6803F02003FE
:102ACC00202B07D17B681B686FF020021A61786895
:102ADC0000F032FA00BF0837BD4680BD80B584B027
:102AEC0000AF786039607B6893F83C30012B01D1E2
:102AFC000223B3E07B68012283F83C207B6802222E
:102B0C0083F83D207B681B689B68FB60FB6823F0A7
:102B1C007703FB60FB6823F47F43FB607B681B68D7
:102B2C00FA689A603B681B68B3F5005F3ED0B3F55A
:102B3C00005F00F28780B3F5805F00F08580B3F50D
:102B4C00805F7FD8702B1AD0702B7BD8602B50D025
:102B5C00602B77D8502B3CD0502B73D8402B58D0AF
:102B6C00402B6FD8302B64D0302B6BD8202B60D0FF
:102B7C00202B67D8002B5CD0102B5AD062E07B68DE
:102B8C0018683B6899683B685A683B68DB6800F0DA
:102B9C005CF97B681B689B68FB60FB6843F0770300
:102BAC00FB607B681B68FA689A604EE07B6818686B
:102BBC003B6899683B685A683B68DB6800F045F9EC
:102BCC007B681B689A687B681B6842F480429A6039
:102BDC003BE07B6818683B6859683B68DB681A46C1
:102BEC0000F0BCF87B681B685021184600F013F904
:102BFC002BE07B6818683B6859683B68DB681A46B1
:102C0C0000F0DAF87B681B686021184600F003F9C5
:102C1C001BE07B6818683B6859683B68DB681A46A0
:102C2C0000F09CF87B681B684021184600F0F3F814
:102C3C000BE07B681A683B681B681946104600F06D
:102C4C00EAF802E000BF00E000BF7B68012283F8D5
:102C5C003D207B68002283F83C2000231846103767
:102C6C00BD4680BD80B483B000AF786000BF0C3728
:102C7C00BD4680BC704780B483B000AF786000BFA5
:102C8C000C37BD4680BC704780B483B000AF786011
:102C9C0000BF0C37BD4680BC704780B483B000AF1A
:102CAC00786000BF0C37BD4680BC704780B485B0DF
:102CBC0000AF786039607B681B68FB607B68254AD5
:102CCC00934207D07B68B3F1804F03D07B68224AD4
:102CDC00934208D1FB6823F07003FB603B685B6890
:102CEC00FA681343FB607B681A4A934207D07B68EF
:102CFC00B3F1804F03D07B68174A934208D1FB682D
:102D0C0023F44073FB603B68DB68FA681343FB6099
:102D1C00FB6823F080023B685B691343FB607B68B4
:102D2C00FA681A603B689A687B68DA623B681A68D2
:102D3C007B689A627B68074A934203D13B681A69A5
:102D4C007B681A637B6801225A6100BF1437BD4649
:102D5C0080BC7047002C01400004004080B487B058
:102D6C0000AFF860B9607A60FB681B6A7B61FB6836
:102D7C001B6A23F00102FB681A62FB689B693B61CA
:102D8C003B6923F0F0033B617B681B013A691343F9
:102D9C003B617B6923F00A037B617A69BB6813434F
:102DAC007B61FB683A699A61FB687A691A6200BFB9
:102DBC001C37BD4680BC704780B487B000AFF8604C
:102DCC00B9607A60FB681B6A23F01002FB681A6218
:102DDC00FB689B697B61FB681B6A3B617B6923F425
:102DEC0070437B617B681B037A6913437B613B698E
:102DFC0023F0A0033B61BB681B013A6913433B61A1
:102E0C00FB687A699A61FB683A691A6200BF1C37E1
:102E1C00BD4680BC704780B485B000AF7860396027
:102E2C007B689B68FB60FB6823F07003FB603A686F
:102E3C00FB68134343F00703FB607B68FA689A60F6
:102E4C0000BF1437BD4680BC704780B487B000AF5C
:102E5C00F860B9607A603B60FB689B687B617B695A
:102E6C0023F47F437B613B681A027B681A43BB687F
:102E7C0013437A6913437B61FB687A699A6000BFDC
:102E8C001C37BD4680BC704780B485B000AF7860FD
:102E9C0039607B6893F83C30012B01D1022341E06F
:102EAC007B68012283F83C207B68022283F83D205A
:102EBC007B681B685B68FB607B681B689B68BB60FE
:102ECC00FB6823F07003FB603B681B68FA681343D4
:102EDC00FB607B681B68FA685A607B681B68144A45
:102EEC00934209D07B681B68B3F1804F04D07B6898
:102EFC001B68104A93420CD1BB6823F08003BB6063
:102F0C003B685B68BA681343BB607B681B68BA6834
:102F1C009A607B68012283F83D207B68002283F84D
:102F2C003C20002318461437BD4680BC704700BFB8
:102F3C00002C01400004004080B483B000AF7860E6
:102F4C0000BF0C37BD4680BC704780B483B000AF67
:102F5C00786000BF0C37BD4680BC704770B500264A
:102F6C000C4D0D4C641BA410A64209D100F022F8A4
:102F7C0000260A4D0A4C641BA410A64205D170BD54
:102F8C0055F8043B98470136EEE755F8043B984753
:102F9C000136F2E704300008043000080430000861
:102FAC000830000803460244934200D1704703F8EE
:102FBC00011BF9E7F8B500BFF8BC08BC9E4670478A
:0C2FCC00F8B500BFF8BC08BC9E4670477A
:102FD80002030405060708090A0B0C0D0E0F101052
:102FE8004079243019120278001000000000000017
:0C2FF800000000000102030406070809A5
:04300400310100088E
:043008000D010008AE
:10300C000010000000200000004000000000000044
:10301C0001000000010000000100000000000000A1
:10302C000100000001000000010000000000000091
:10303C000100000001000000010000000000000081
:10304C000100000001000000010000000000000071
:10305C00C800000000127A001000000001000000FF
:0400000508001921B5
:00000001FF
